:020000040000FA
:10000000680120206D0100007101000073010000F3
:1000100000000000000000000000000000000000E0
:10002000000000000000000000000000750100005A
:1000300000000000000000007701000079010000CE
:100040007B0100007B0100007B0100007B010000C0
:100050007B0100007B0100007B0100007B010000B0
:10006000000000007B0100007B0100000000000098
:10007000000000007B0100007B0100007B0100000C
:100080007B0100007B0100007B0100007B01000080
:100090007B0100007B010000000000000000000068
:1000A0007B0100007B010000000000000000000058
:1000B0007B010000000000007B0100007B010000CC
:1000C00000F002F800F042F812A030C808382418F6
:1000D0002D18AC4201D100F039F80FCCA246AB4646
:1000E0000CA730CF2D1B083F3F197C427F1E544484
:1000F0002D090426F441641EAC4201D300F026F819
:100100000126334200D0FB1A3343984754465D46DC
:10011000DFE70000AC1B0000BC1B0000000000007B
:100120007047000000000000002300240025002686
:10013000103A01D378C1FBD8520700D330C100D5A3
:100140000B6070471FB51FBD10B510BD00F027F83C
:100150001146FFF7F7FF00F00FFF00F03FF803B480
:10016000FFF7F2FF03BC00F045F800000648004727
:10017000FEE7FEE7FEE7FEE7FEE7FEE70348044989
:10018000024A044B70470000C100000068002020B4
:10019000680120206800202070477047704775462E
:1001A00000F024F8AE46050069465346C008C0007A
:1001B000854618B020B5FFF7E1FF60BCB6460026C3
:1001C0000027C0C5C0C5C0C5C0C5C0C5C0C5C0C565
:1001D000C0C5403D490849008D46704710B50446EA
:1001E000C046C0462046FFF7BAFF10BD0048704722
:1001F0000000202001491820ABBEFEE726000200C7
:100200007047811E091F00BFFCD2704770B50A7885
:100210000C231A400124240305196E689E43B2186A
:100220006A604978072211400359934359180151D4
:1002300070BD0000B0B51122120283580C4C1C4056
:100240000B894D881D438B792B430A4D1D402B197B
:1002500083508B88CC791C43097821435D239B0014
:100260001940801842689A4389184160B0BDC04661
:1002700080CCFFFF7F33000010B5012212038318EA
:100280000C785C604978815010BD0000F0B589B0F1
:100290004848494A426049494A601546484A02600E
:1002A0000A6010200390FFF7ACFF4648002102913E
:1002B00001600320C04344490A6802400A60434F7A
:1002C0008126FE65BE657E663E66414C66602660A0
:1002D000E6653E657E653E677E67FE63BE63A66239
:1002E0007E633C486066A06620656065A064A0658A
:1002F0006063A0633848811EA16138607860374828
:10030000456004AD0821009129802D4901600398C2
:10031000FFF777FF32482946FFF778FF3148011F82
:100320001F220A60016802229143016001680422D1
:100330000A4302600168012201921143016006AD87
:10034000029828812848079028480690E664832070
:100350006061F8672648206126481749416005AE6C
:1003600000993180164901600398FFF74AFF224C3B
:1003700020462946FFF75EFF20463146FFF77CFF07
:100380001E4841681E4A0A401F32426081683F226F
:100390000A4382600168019C214301604D4819496C
:1003A00001614B4A184B136001641363E10501605E
:1003B00009B0F0BD00080A40030000B100280A405F
:1003C0000100002608030B4000010B40048042405E
:1003D00088804240810005008300060000080F402D
:1003E00000000F4028120F400000071004002000FA
:1003F0008300040000A8464000A0464004B14640E7
:1004000000FCFFFF803C8000CC330404F0B581B0D9
:100410007D208401B4262F4D80272F602046FFF7D2
:10042000F0FE2F612046FFF7ECFE761EF4D12F6020
:1004300001B0F0BD10B5002806D004467D200002B2
:10044000FFF7DFFE641EF9D110BD2722D2018058CC
:100450000840411E88417047002A03D1952252016D
:1004600081507047014A81507047C0469012000089
:10047000F0B583B0019000281DD07D200502012039
:1004800080040290B320C643002402980B49086000
:1004900037462846FFF7B5FE7F1CFAD30298074976
:1004A000086137462846FFF7ACFE7F1CFAD3641C70
:1004B00001988442E9D303B0F0BDC04690320A40AF
:1004C00001208004024908600248802101607047D1
:1004D000A0320A4090120A400120800402490968B3
:1004E000014048424841704780130A40F0B58BB044
:1004F000074602920191501A039000252E46089556
:100500000795069504970BE0C2179043CA179143CD
:1005100000F064FD039836186D1C3F48854263D097
:1005200001F034FA002801D0069A01E0079A521C23
:1005300029094A2900D8069A91B20591502956D224
:100540000792002802D001F0E1F9089000270A97ED
:10055000089801B2062048430A2101F0D5FA099013
:1005600030462A4C214601F0CFFAA54201D3029C25
:1005700001E0019944180AA800F06AF900280ED099
:100580000498878007461120C1430A980246093A19
:100590008A420DD8800039680818386008E0049F46
:1005A000B888C1087D291FD2411CB98063281BD29D
:1005B0003868041B2046164901F0A6FA01210128DB
:1005C00000DB0846134A944200DB41420998411877
:1005D000084611306422642800DB10461323591AA0
:1005E000642991DB11468FE700F0DAFC04E0782003
:1005F00000F0B8FD0298386005984F2802D8002016
:100600000BB0F0BD01200BB0F0BDC046701700006C
:10061000E86E03003122F9FF983A0000F0B581B08E
:1006200001F0B4F9414241410027264D3A463C468B
:1006300003E0BBB2721C4F2B32D81646C90703D158
:10064000C0B201F063F9044621B2062048430A21F2
:1006500001F05AFA1321091A642900DB6421532896
:1006600000DB53201022D243904200DC1046CA1710
:1006700091431130C0B200F0B1FC1148B04213D028
:1006800001F084F9414241410022002803D017467D
:10069000AE42CED802E07F1CAE42CAD81746C8E7A9
:1006A000782000F05FFD01E000F07AFC044886420B
:1006B00002D3002001B0F0BD012001B0F0BDC04662
:1006C000973A0000AE040000F0B583B00026019612
:1006D000354634460CE01821081AC1178843C1B2C8
:1006E0001632D0B200F07AFC761C2748864237D00A
:1006F00001F04CF9002801D1044600E0641CF10827
:10070000002002907C2900D80446A7B2032F2ED2E5
:1007100002A800F09DF800280BD002981021C943D0
:100720000246093A8A4202D201990918019100252C
:1007300003E06D1CA8B2642812D20198104901F0A0
:10074000E3F90521C943884200DC08460D49019AB6
:100750008A4200DA06204E280246BCDB4E22BAE767
:1007600000F01EFC022F07D8002003B0F0BD782057
:1007700000F0F8FC022FF7D9012003B0F0BDC0460D
:100780003EFEFFFFB3F3FFFFE02E0000F0B583B0A5
:100790004348002505706C4625707820FFF74AFE17
:1007A0007520214600F080F800284DD02078472899
:1007B0004AD176200024214600F02CFA002843D0AC
:1007C0004F20062100F026FA00283DD04E200F21B0
:1007D00000F020FA002837D0C820FFF72BFE00F0E9
:1007E00079FCDC20FFF726FE25462746264606E054
:1007F0000420FFF71FFE681C1F2D054617D202A913
:100800000C7001A80470292000F04EF80028EFD0E9
:100810002A2001A900F048F80028E9D001A80078B2
:1008200002990902081800B236187F1CE0E7380662
:1008300009D001251A480570F9B2304601F064F973
:100840001849086000E00025284603B0F0BDC04606
:10085000B0B582B004461248007801281BD101A926
:1008600000250D7068460570292000F01DF800284D
:1008700012D02A20694600F017F800280CD06846EC
:10088000007801990902081800B206490968401A5F
:100890002060012500E00025284602B0B0BDC0461A
:1008A0006000202064002020F0B581B00091064651
:1008B0000124E505D448002729463A46FFF7CCFD38
:1008C0000820FFF79EFCD148016849070DD4016A52
:1008D0000168490709D4016A0168490705D4016A1A
:1008E0000168490701D4016AEEE701688907C84930
:1008F0004ED40A4603689B074AD403689B0747D433
:1009000003689B0744D403689B0741D403689B0793
:100910003ED403689B073BD403689B0738D4036825
:100920009B0735D403689B0732D403689B072FD4F9
:1009300003689B072CD403689B0729D403689B0793
:1009400026D403689B0723D403689B0720D403683D
:100950009B071DD403689B071AD403689B0717D411
:1009600003689B0714D403689B0711D403689B0793
:100970000ED403689B070BD403689B0708D4036855
:100980009B0705D4193A00D1CFE003689B07B1D586
:100990007F22D2431643F2B202630268520700D5A7
:1009A000CBE0026A026852070BD4026A026852075F
:1009B00007D4026A0268520703D4026A0268520727
:1009C000EFD5026892074DD40A4603689B0749D4C5
:1009D00003689B0746D403689B0743D403689B07BF
:1009E00040D403689B073DD403689B073AD403684F
:1009F0009B0737D403689B0734D403689B0731D423
:100A000003689B072ED403689B072BD403689B07BE
:100A100028D403689B0725D403689B0722D4036866
:100A20009B071FD403689B071CD403689B0719D43A
:100A300003689B0716D403689B0713D403689B07BE
:100A400010D403689B070DD403689B070AD403687E
:100A50009B0707D403689B0704D4193A65D0036841
:100A60009B07B2D500270763026852074AD5026880
:100A7000520747D50268520744D50268520741D54C
:100A8000026852073ED5026852073BD502685207FA
:100A900038D50268520735D50268520732D5026848
:100AA00052072FD5026852072CD50268520729D564
:100AB0000268520726D50268520723D502685207FA
:100AC00020D5026852071DD5026852071AD5026860
:100AD000520717D50268520714D50268520711D57C
:100AE000026852070ED5026852070BD502685207FA
:100AF00008D50268520705D50268520702D5193990
:100B0000B2D112E0016A009A11700168C90608D5D5
:100B10000168C90605D50168C90602D50168C9067C
:100B2000F3D40820FFF76DFB2746374829462246B5
:100B3000FFF792FC384601B0F0BD0A4603685B0738
:100B400000D42EE703685B0700D42AE703685B073D
:100B500000D426E703685B0700D422E703685B073D
:100B600000D41EE703685B0700D41AE703685B073D
:100B700000D416E703685B0700D412E703685B073D
:100B800000D40EE703685B0700D40AE703685B073D
:100B900000D406E703685B0700D402E703685B073D
:100BA00000D4FEE603685B0700D4FAE603685B073F
:100BB00000D4F6E603685B0700D4F2E603685B073F
:100BC00000D4EEE603685B0700D4EAE603685B073F
:100BD00000D4E6E603685B0700D4E2E603685B073F
:100BE00000D4DEE603685B0700D4DAE603685B073F
:100BF00000D4D6E603685B0700D4D2E6193A94D055
:100C000003685B079AD4CCE600000A4010B1464066
:100C1000409C0000F0B581B0009106460124E50536
:100C2000D248002729463A46FFF716FC0820FFF76E
:100C3000E8FACF48016849070DD4016A01684907FD
:100C400009D4016A0168490705D4016A01684907A6
:100C500001D4016AEEE701688907C6494ED40A4605
:100C600003689B074AD403689B0747D403689B0724
:100C700044D403689B0741D403689B073ED40368B0
:100C80009B073BD403689B0738D403689B0735D484
:100C900003689B0732D403689B072FD403689B0724
:100CA0002CD403689B0729D403689B0726D40368C8
:100CB0009B0723D403689B0720D403689B071DD49C
:100CC00003689B071AD403689B0717D403689B0724
:100CD00014D403689B0711D403689B070ED40368E0
:100CE0009B070BD403689B0708D403689B0705D4B4
:100CF000193A00D1CBE003689B07B1D57F2216409B
:100D000006630268520700D5C9E0026A026852070A
:100D10000BD4026A0268520707D4026A02685207BB
:100D200003D4026A02685207EFD5026892074DD4D5
:100D30000A4603689B0749D403689B0746D40368A7
:100D40009B0743D403689B0740D403689B073DD4AB
:100D500003689B073AD403689B0737D403689B0753
:100D600034D403689B0731D403689B072ED40368EF
:100D70009B072BD403689B0728D403689B0725D4C3
:100D800003689B0722D403689B071FD403689B0753
:100D90001CD403689B0719D403689B0716D4036807
:100DA0009B0713D403689B0710D403689B070DD4DB
:100DB00003689B070AD403689B0707D403689B0753
:100DC00004D4193A63D003689B07B2D5009A026332
:100DD000026852074AD50268520747D5026852078F
:100DE00044D50268520741D5026852073ED50268D1
:100DF00052073BD50268520738D50268520735D5ED
:100E00000268520732D5026852072FD5026852078E
:100E10002CD50268520729D50268520726D50268E8
:100E2000520723D50268520720D5026852071DD504
:100E3000026852071AD50268520717D5026852078E
:100E400014D50268520711D5026852070ED5026800
:100E500052070BD50268520708D50268520705D51C
:100E60000268520702D51939B2D110E0016A01684F
:100E7000C90608D50168C90605D50168C90602D5A5
:100E80000168C906F3D40820FFF7BBF92746DB4801
:100E900029462246FFF7E0FA384601B0F0BD0A467F
:100EA00003685B0700D430E703685B0700D42CE7D6
:100EB00003685B0700D428E703685B0700D424E7D6
:100EC00003685B0700D420E703685B0700D41CE7D6
:100ED00003685B0700D418E703685B0700D414E7D6
:100EE00003685B0700D410E703685B0700D40CE7D6
:100EF00003685B0700D408E703685B0700D404E7D6
:100F000003685B0700D400E703685B0700D4FCE6D6
:100F100003685B0700D4F8E603685B0700D4F4E6D7
:100F200003685B0700D4F0E603685B0700D4ECE6D7
:100F300003685B0700D4E8E603685B0700D4E4E6D7
:100F400003685B0700D4E0E603685B0700D4DCE6D7
:100F500003685B0700D4D8E603685B0700D4D4E6D7
:100F6000193A94D003685B079AD4CEE600000A4091
:100F700010B14640409C0000FFF788F9CC48802122
:100F80000122FFF769FAFFF79BFA00F0A3F800F0DF
:100F90003FFC00F09FF81420FFF74CFAF9E7C04639
:100FA00070B501263102EF4D002428462246FFF796
:100FB00053FAB10628462246FFF74EFA3103284677
:100FC0002246FFF749FA042128462246FFF744FA51
:100FD00000F080F85020FFF72DFA70BDF0B585B015
:100FE00003910290DF4C4021012620463246FFF754
:100FF00033FA7102002720463A46FFF72DFA7103B3
:101000000191D94D28463246FFF726FA310328468A
:1010100004913A46FFF720FAB10228463A46FFF714
:101020001BFAF10228463246FFF716FA20460199CC
:101030003A46FFF711FA082120463246FFF70CFA2C
:1010400003984000039002984000029001970FE03F
:10105000B10620462A46FFF7FFF9204604992A46A2
:10106000FFF7FAF9A020FFF7CCF87F1CC82F14D0A7
:1010700002988742354600D3019D310220462A4618
:10108000FFF7EAF9042120462A46FFF7E5F903981D
:1010900087423546DCD3019DDAE705B0F0BDC04696
:1010A00070B501263102AF4D002428462246FFF7D5
:1010B000D3F9B10628462246FFF7CEF93103284678
:1010C0002246FFF7C9F9042128462246FFF7C4F952
:1010D00070BDC046F0B581B001263102A14D00249B
:1010E00028462246FFF7B8F9B10628462246FFF700
:1010F000B3F93103009128462246FFF7ADF90421E8
:1011000028462246FFF7A8F9402128462246FFF745
:10111000A3F9710228462246FFF79EF97703924D04
:10112000284639462246FFF797F928460099224675
:10113000FFF792F9B10228462246FFF78DF9F10236
:1011400028462246FFF788F9864D2846394622462A
:10115000FFF782F9082128462246FFF77DF901B002
:10116000F0BDC046F0B583B002907E4D402101260F
:1011700028463246FFF770F9710228463246FFF7DB
:101180006BF97403784F384621463246FFF764F90D
:101190003103019138463246FFF75EF9B102384615
:1011A0003246FFF759F9F10238463246FFF754F953
:1011B000284621463246FFF74FF908212846324695
:1011C000FFF74AF9310228463246FFF745F9B106E2
:1011D00028463246FFF740F9284601993246FFF784
:1011E0003BF9042128463246FFF736F90298FFF70B
:1011F00021F9FFF76FFF03B0F0BDC04600000A40C1
:10120000F0B583B00190574C4021002720463A4664
:10121000FFF722F90125690220462A46FFF71CF94B
:101220006E03204631462A46FFF716F9082120466C
:101230003A46FFF711F94C4831462A46FFF70CF9B8
:101240002903494802913A46FFF706F9A9024648A0
:1012500006463A46FFF700F9E90230462A46FFF70C
:10126000FBF8019840000190009719E02902204600
:101270003246FFF7F1F8042120463246FFF7ECF83A
:10128000A90620463246FFF7E7F820460299324683
:10129000FFF7E2F8A020FEF7B4FF7F1CC82F05D0AF
:1012A000019887422E46E1D3009EDFE703B0F0BDF0
:1012B00000200A40F0B583B001902A4C402101265D
:1012C00020463246FFF7C8F87102002720463A460A
:1012D000FFF7C2F87503204629463A46FFF7BCF8E7
:1012E000082120463246FFF7B7F81F4829463A46FC
:1012F000FFF7B2F831031C4802913246FFF7ACF811
:10130000B102194805463246FFF7A6F8F102284611
:101310003A46FFF7A1F8019840000190009719E0C4
:10132000310220462A46FFF797F8042120462A4634
:10133000FFF792F8B10620462A46FFF78DF82046BF
:1013400002992A46FFF788F8A020FEF75AFF7F1C73
:10135000C82F05D0019887423546E1D3009DDFE7CD
:1013600003B0F0BD00200A4000000A40F0B58BB089
:1013700005AC0EC40646119F7842039000241398D2
:10138000029012980090109801900994049609E038
:10139000C2179043CA179143FFF720FE641C4F48C1
:1013A000844269D000F0F2FA002801D1014601E040
:1013B0000999491CE0087C2800D8002188B20890CF
:1013C00003285CD2099100250A950AA8FFF740FA84
:1013D00000280DD00020B0801120C0430A9D29466E
:1013E000093981420CD8A80031680818306007E03C
:1013F000B088C1087D293FD2411CB18063283BD20F
:1014000030680599401A4000019900F07DFB874241
:10141000394600DB01464042B8423E4600DC4E42BF
:101420003320C04329461A3981420ED828460099F4
:1014300000F06AFB0299814200DB01464042029AB9
:101440009042104602DC484200E0002081190398D7
:10145000884200DC0846B9423946049E00DC014659
:10146000069808186422642800DB1046079B591A66
:1014700064298DDB11468BE7FFF792FD02E07820AF
:10148000FFF770FE0898022802D800200BB0F0BDCC
:1014900001200BB0F0BDC04670B500240F4D06E032
:1014A00019201521FFF79AFD641CAC420FD0E60805
:1014B00000F06CFA7D2EF3D30028F1D07820FFF7EE
:1014C00051FEFEF7A3FF0120FEF7D2FF70BDFFF72C
:1014D00067FD0320FEF7CCFF70BDC046983A0000C0
:1014E000F0B589B0002007900690FFF74FF900286B
:1014F00000D181E00420039008200190474800902B
:101500004B200001029006A8002118221423FFF7A7
:101510002DFF002872D0FEF779FF0120FEF7A8FF0B
:101520009620FEF787FF06A800253D4A2946FEF7CC
:10153000DDFF002862D0FEF769FF0120FEF798FF6B
:101540009620FEF777FF05952C46680722D10027E5
:101550000897FFF7A5FD19208001FEF752FE08A8A5
:10156000FFF776F9002815D00898C1174840461AA9
:101570008A48864200D3894E0598401C082E059063
:1015800008D91620FFF796FE7001041925488442F9
:1015900003DD3AE01620FFF78DFE6D1CE120800090
:1015A0008542D2D1FFF7FCFC059800042BD00A201D
:1015B0000390122001901C480090AF204000029040
:1015C00006A81722164C21461346FFF7CFFE002827
:1015D00014D0FEF71BFF0120FEF74AFF9620FEF70E
:1015E00029FF06A8114A2146FEF780FF002805D0F2
:1015F000FEF70CFF012002E0022000E00320FEF7CE
:1016000037FF09B0F0BD0420F9E77820FFF7AAFD05
:1016100006A8878002480690C9E7C046D0DD0600CC
:1016200080EE36003F600A00F049020000DD6D00E8
:1016300080B5FFF7ABF8002804D00448724900F0E9
:1016400007F880BD0220FEF713FF80BD008813005D
:10165000F0B583B00E4600F0E3F9002800D194E025
:10166000FEF7D4FE0120FEF703FF7820FEF7E2FE2E
:10167000FFF72AF8002800D189E0FEF7C7FE012411
:101680002046FEF7F5FE7820FEF7D4FE96251420BE
:10169000FFF7B6FD6D1EFAD13C20FFF763FDFEF7A4
:1016A000BDFF002873D0FEF7B1FE2046FEF7E0FE36
:1016B0007820FEF7BFFE002700973D4601961E2FBB
:1016C00003D31A26780721D102E0202678071DD1FE
:1016D00000200290FFF7E4FC19208001FEF791FD45
:1016E00002A8FFF7B5F8002810D00098401C009021
:1016F000282F0BD30298C1174840401AEF4988425F
:1017000000DBEE48092801D3400145193046FFF7B8
:1017100077FD0198854201DB002000E00120502F79
:10172000214600D30146002909D07F1CE4488742A6
:10173000C5D1FFF735FC0098000403D125E07820DF
:10174000FFF710FDFEF762FE0120FEF791FE782004
:10175000FEF770FEFEF7B8FF002818D0FEF756FE21
:101760000120FEF785FE7820FEF764FE0C4800F0AD
:1017700057F9002809D0FEF751FF002807D0FEF7DF
:1017800045FE0120FEF774FE05E0042000E0032082
:10179000FEF76EFE0024204603B0F0BDE02E0000F0
:1017A000F07E0E00B0B5FEF7F1FF002826D01548F8
:1017B000154C2146FFF74CFF00281ED0B420FEF741
:1017C00039FE124D28462146FFF742FF002814D06B
:1017D000B420FEF72FFE28462146FFF739FF0028E8
:1017E0000BD0B420FEF726FE28462146FFF730FF37
:1017F000002802D0B420FEF71DFEB0BD0220FEF787
:1018000037FEB0BD30FD130010911800903A1C0057
:10181000F0B583B00124A00401900026029435465F
:1018200001E000294DD0FEF757FE002834D00024F7
:1018300002E03C46282C0AD2FEF74EFE07460A205C
:10184000FEF7F8FD002FF4D00A34282CF4D3E8B2C8
:1018500003280FD8714E3046019C2146029AFEF7AC
:10186000FBFD5020FEF7E6FD002230462146FEF744
:10187000F3FD6D1C0026344602E02828044611D2F0
:10188000FEF72AFE07460A20FEF7D4FD002F304659
:10189000F3D10A342046F0E70A20FEF7CBFDE0073B
:1018A00000D10A36EFB27C427C41B0B200094B282D
:1018B00001D3002000E00120002F0299B1D00146A1
:1018C000AFE73846FEF7D4FDFA20FEF7B3FD781EE9
:1018D000032809D87844007940008744010A0E1291
:1018E000FFF7DAFD03B0F0BD0420FEF7C1FD03B041
:1018F000F0BDFFF7F5FD03B0F0BDFFF799FE03B0B3
:10190000F0BDFFF74FFF03B0F0BDC046F0B581B0AA
:10191000022202400123034059422224A143002A0B
:1019200000D0193904240440009400D00F39082550
:10193000054000D0491F1026064000D0491D202731
:10194000074000D00F314024044000D01931520824
:101950009A18009B9B08D218EB08D2183309D218AA
:101960007B09D218A309D21840B2002804D410066B
:1019700004D1002001B0F0BD2331521C48B251B255
:1019800000F0C2F840B201B0F0BD0000F0B581B087
:101990000126B106204D2846FEF757FD0446F10604
:1019A0002846FEF752FD7440002800D1A41C3506DD
:1019B00019482946FEF749FD002800D1241D770665
:1019C00015483946FEF741FD002800D10834134878
:1019D0002946FEF73AFD002801D1102004430F4D9F
:1019E00028463946FEF731FD002801D12020044366
:1019F000B1050948FEF729FD002801D14020044324
:101A000031052846FEF721FD002801D1802004433E
:101A1000E0B201B0F0BDC04600000A4000200A401C
:101A2000F0B583B001900027012400973D461E2F9A
:101A300003D31A26780721D102E0202678071DD18A
:101A400000200290FFF72CFB19208001FEF7D9FB44
:101A500002A8FEF7FDFE002810D00098401C009060
:101A6000282F0BD30298C1174840401A13498842C7
:101A700000DB1248092801D3400145193046FFF721
:101A800019FC0198854201DB002000E00120502F65
:101A9000214600D3014600290AD07F1C084887420E
:101AA000C5D1009884B2601E8441FFF779FA02E044
:101AB0007820FFF757FB204603B0F0BDE02E000072
:101AC000B80B000043088B421AD3002203098B4253
:101AD00079D3030A8B425ED3030B8B4242D3030CB0
:101AE0008B4227D30902FF2212BA030C8B4202D386
:101AF0001212090203D0030B8B4233D31AE0D3E056
:101B0000411A8041401C704703460B4371D443087F
:101B10008B42F5D3002203098B4254D3030A8B4234
:101B200039D3030B8B421DD3030C8B4202D3944653
:101B30006EE0090AC30B8B4201D3CB03C01A52419A
:101B4000830B8B4201D38B03C01A5241430B8B4250
:101B500001D34B03C01A5241030B8B4201D30B0339
:101B6000C01A5241C30A8B4201D3CB02C01A524160
:101B7000830A8B4201D38B02C01A5241430A8B4223
:101B800001D34B02C01A5241030A8B4201D30B020C
:101B9000C01A5241CDD2C3098B4201D3CB01C01A26
:101BA000524183098B4201D38B01C01A5241430930
:101BB0008B4201D34B01C01A524103098B4201D31E
:101BC0000B01C01A5241C3088B4201D3CB00C01A8B
:101BD000524183088B4201D38B00C01A5241430803
:101BE0008B4201D34B00C01A5241411A524110009E
:101BF0007047CA0F00D04942031000D340425340FF
:101C000000229C4603098B422DD3030A8B4212D338
:101C10008901FC2212BA030A8B420CD3890192116A
:101C20008B4208D3890192118B4204D3890137D0AA
:101C3000921100E08909C3098B4201D3CB01C01A7C
:101C4000524183098B4201D38B01C01A524143098F
:101C50008B4201D34B01C01A524103098B4201D37D
:101C60000B01C01A5241C3088B4201D3CB00C01AEA
:101C7000524183088B4201D38B00C01A5241D9D202
:101C800043088B4201D34B00C01A5241411A00D283
:101C900001465241104663465B1000D340427047F4
:101CA00063465B1000D3404201B50021004201D0E1
:101CB000C9430846C046C04602BD000000000000FF
:101CC000D01C000000002020680100002801000056
:04000005000000C136
:00000001FF
