:020000040000FA
:10000000680120206D0100007101000073010000F3
:1000100000000000000000000000000000000000E0
:10002000000000000000000000000000750100005A
:1000300000000000000000007701000079010000CE
:100040007B0100007B0100007B0100007B010000C0
:100050007B0100007B0100007B0100007B010000B0
:10006000000000007B0100007B0100000000000098
:10007000000000007B0100007B0100007B0100000C
:100080007B0100007B0100007B0100007B01000080
:100090007B0100007B010000000000000000000068
:1000A0007B0100007B010000000000000000000058
:1000B0007B010000000000007B0100007B010000CC
:1000C00000F002F800F042F812A030C808382418F6
:1000D0002D18AC4201D100F039F80FCCA246AB4646
:1000E0000CA730CF2D1B083F3F197C427F1E544484
:1000F0002D090426F441641EAC4201D300F026F819
:100100000126334200D0FB1A3343984754465D46DC
:10011000DFE700008C1900009C19000000000000BF
:100120007047000000000000002300240025002686
:10013000103A01D378C1FBD8520700D330C100D5A3
:100140000B6070471FB51FBD10B510BD00F027F83C
:100150001146FFF7F7FF00F0B5FE00F03FF803B4DB
:10016000FFF7F2FF03BC00F045F800000648004727
:10017000FEE7FEE7FEE7FEE7FEE7FEE70348044989
:10018000024A044B70470000C100000068002020B4
:10019000680120206800202070477047704775462E
:1001A00000F024F8AE46050069465346C008C0007A
:1001B000854618B020B5FFF7E1FF60BCB6460026C3
:1001C0000027C0C5C0C5C0C5C0C5C0C5C0C5C0C565
:1001D000C0C5403D490849008D46704710B50446EA
:1001E000C046C0462046FFF7BAFF10BD0048704722
:1001F0000000202001491820ABBEFEE726000200C7
:100200007047811E091F00BFFCD2704770B50A7885
:100210000C231A400124240305196E689E43B2186A
:100220006A604978072211400359934359180151D4
:1002300070BD0000B0B51122120283580C4C1C4056
:100240000B894D881D438B792B430A4D1D402B197B
:1002500083508B88CC791C43097821435D239B0014
:100260001940801842689A4389184160B0BDC04661
:1002700080CCFFFF7F33000010B5012212038318EA
:100280000C785C604978815010BD0000F0B589B0F1
:100290004848494A426049494A601546484A02600E
:1002A0000A6010200390FFF7ACFF4648002102913E
:1002B00001600320C04344490A6802400A60434F7A
:1002C0008126FE65BE657E663E66414C66602660A0
:1002D000E6653E657E653E677E67FE63BE63A66239
:1002E0007E633C486066A06620656065A064A0658A
:1002F0006063A0633848811EA16138607860374828
:10030000456004AD0821009129802D4901600398C2
:10031000FFF777FF32482946FFF778FF3148011F82
:100320001F220A60016802229143016001680422D1
:100330000A4302600168012201921143016006AD87
:10034000029828812848079028480690E664832070
:100350006061F8672648206126481749416005AE6C
:1003600000993180164901600398FFF74AFF224C3B
:1003700020462946FFF75EFF20463146FFF77CFF07
:100380001E4841681E4A0A401F32426081683F226F
:100390000A4382600168019C214301604548194974
:1003A0000161434A184B136001641363E105016066
:1003B00009B0F0BD00080A40030000B100280A405F
:1003C0000100002608030B4000010B40048042405E
:1003D00088804240810005008300060000080F402D
:1003E00000000F4028120F400000071004002000FA
:1003F0008300040000A8464000A0464004B14640E7
:1004000000FCFFFF803C8000CC330404294880219D
:100410000160704710B5002806D004467D20000218
:10042000FFF7EFFE641EF9D110BD2722D2018058DC
:100430000840411E88417047002A03D1952252018D
:1004400081507047014A81507047C04690120000A9
:10045000F0B583B0019000281DD07D200502012059
:1004600080040290B320C643002402980B49086020
:1004700037462846FFF7C5FE7F1CFAD30298074986
:10048000086137462846FFF7BCFE7F1CFAD3641C80
:1004900001988442E9D303B0F0BDC04690320A40CF
:1004A00001208004024908600248802101607047F1
:1004B000A0320A4090120A400120800402490968D3
:1004C000014048424841704780130A40F0B581B06E
:1004D00001F09EF94142414100274D4D3A463C46CC
:1004E00003E0BBB2721C312B31D81646C90703D1C9
:1004F000C0B201F04DF90446A0B2C00B201800B202
:1005000040101421091A642900DB6421522800DB01
:1005100052201122D243904200DC1046CA17914368
:100520001230C0B200F000FD3848B04213D001F0E4
:100530006FF9414241410022002803D01746AE42E4
:10054000CFD802E07F1CAE42CBD81746C9E778204F
:1005500000F0AEFD01E000F0C9FC2C48864202D359
:10056000002001B0F0BD012001B0F0BDF0B581B0B8
:1005700001F04EF9414241410027254D3A463C46A3
:1005800003E0BBB2721C312B31D81646C90703D128
:10059000C0B201F0FDF80446A0B2C00B201800B2B2
:1005A00040101421091A642900DB6421522800DB61
:1005B00052201122D243904200DC1046CA179143C8
:1005C0001230C0B200F0B0FC1048B04213D001F0BD
:1005D0001FF9414241410022002803D01746AE4294
:1005E000CFD802E07F1CAE42CBD81746C9E77820AF
:1005F00000F05EFD01E000F079FC0448864202D381
:10060000002001B0F0BD012001B0F0BD973A00001C
:10061000AE040000F0B583B000260196354634469E
:100620000CE01821081AC1178843C1B21632D0B2A3
:1006300000F07AFC761C2748864237D001F0E8F8B3
:10064000002801D1044600E0641CF108002002905B
:100650007C2900D80446A7B2032F2ED202A800F0AE
:100660009DF800280BD002981021C9430246093A90
:100670008A4202D2019909180191002503E06D1CFC
:10068000A8B2642812D20198104901F02DF9052171
:10069000C943884200DC08460D49019A8A4200DAC3
:1006A00006204E280246BCDB4E22BAE700F01EFCB4
:1006B000022F07D8002003B0F0BD782000F0F8FC2E
:1006C000022FF7D9012003B0F0BDC0463EFEFFFF68
:1006D000B3F3FFFFE02E0000F0B583B043480025E0
:1006E00005706C4625707820FFF794FE7520214632
:1006F00000F080F800284DD0207847284AD1762095
:100700000024214600F02CFA002843D04F20062177
:1007100000F026FA00283DD04E200F2100F020FAEC
:10072000002837D0C820FFF775FE00F079FCDC20E8
:10073000FFF770FE25462746264606E00420FFF711
:1007400069FE681C1F2D054617D202A90C7001A86E
:100750000470292000F04EF80028EFD02A2001A9CB
:1007600000F048F80028E9D001A8007802990902B1
:10077000081800B236187F1CE0E7380609D00125BA
:100780001A480570F9B2304601F0AEF81849086011
:1007900000E00025284603B0F0BDC046B0B582B0E9
:1007A00004461248007801281BD101A900250D70CC
:1007B00068460570292000F01DF8002812D02A2074
:1007C000694600F017F800280CD0684600780199B7
:1007D0000902081800B206490968401A206001257C
:1007E00000E00025284602B0B0BDC04660002020D1
:1007F00064002020F0B581B0009106460124E50593
:10080000D448002729463A46FFF716FE0820FFF78E
:10081000F8FCD148016849070DD4016A016849070D
:1008200009D4016A0168490705D4016A01684907CA
:1008300001D4016AEEE701688907C8494ED40A4627
:1008400003689B074AD403689B0747D403689B0748
:1008500044D403689B0741D403689B073ED40368D4
:100860009B073BD403689B0738D403689B0735D4A8
:1008700003689B0732D403689B072FD403689B0748
:100880002CD403689B0729D403689B0726D40368EC
:100890009B0723D403689B0720D403689B071DD4C0
:1008A00003689B071AD403689B0717D403689B0748
:1008B00014D403689B0711D403689B070ED4036804
:1008C0009B070BD403689B0708D403689B0705D4D8
:1008D000193A00D1CFE003689B07B1D57F22D243FC
:1008E0001643F2B202630268520700D5CBE0026AF7
:1008F000026852070BD4026A0268520707D4026AE0
:100900000268520703D4026A02685207EFD50268F0
:1009100092074DD40A4603689B0749D403689B0796
:1009200046D403689B0743D403689B0740D40368FD
:100930009B073DD403689B073AD403689B0737D4D1
:1009400003689B0734D403689B0731D403689B0773
:100950002ED403689B072BD403689B0728D4036815
:100960009B0725D403689B0722D403689B071FD4E9
:1009700003689B071CD403689B0719D403689B0773
:1009800016D403689B0713D403689B0710D403682D
:100990009B070DD403689B070AD403689B0707D401
:1009A00003689B0704D4193A65D003689B07B2D546
:1009B00000270763026852074AD50268520747D5E5
:1009C0000268520744D50268520741D502685207AF
:1009D0003ED5026852073BD50268520738D50268F7
:1009E000520735D50268520732D5026852072FD513
:1009F000026852072CD50268520729D502685207AF
:100A000026D50268520723D50268520720D502680E
:100A100052071DD5026852071AD50268520717D52A
:100A20000268520714D50268520711D502685207AE
:100A30000ED5026852070BD50268520708D5026826
:100A4000520705D50268520702D51939B2D112E012
:100A5000016A009A11700168C90608D50168C906C3
:100A600005D50168C90602D50168C906F3D4082076
:100A7000FFF7C7FB2746374829462246FFF7DCFC2D
:100A8000384601B0F0BD0A4603685B0700D42EE784
:100A900003685B0700D42AE703685B0700D426E7F6
:100AA00003685B0700D422E703685B0700D41EE7F6
:100AB00003685B0700D41AE703685B0700D416E7F6
:100AC00003685B0700D412E703685B0700D40EE7F6
:100AD00003685B0700D40AE703685B0700D406E7F6
:100AE00003685B0700D402E703685B0700D4FEE6F7
:100AF00003685B0700D4FAE603685B0700D4F6E6F8
:100B000003685B0700D4F2E603685B0700D4EEE6F7
:100B100003685B0700D4EAE603685B0700D4E6E6F7
:100B200003685B0700D4E2E603685B0700D4DEE6F7
:100B300003685B0700D4DAE603685B0700D4D6E6F7
:100B400003685B0700D4D2E6193A94D003685B07C8
:100B50009AD4CCE600000A4010B14640409C000008
:100B6000F0B581B0009106460124E505D248002782
:100B700029463A46FFF760FC0820FFF742FBCF48C2
:100B8000016849070DD4016A0168490709D4016A5F
:100B90000168490705D4016A0168490701D4016A5F
:100BA000EEE701688907C6494ED40A4603689B07E9
:100BB0004AD403689B0747D403689B0744D403685F
:100BC0009B0741D403689B073ED403689B073BD433
:100BD00003689B0738D403689B0735D403689B07D9
:100BE00032D403689B072FD403689B072CD4036877
:100BF0009B0729D403689B0726D403689B0723D44B
:100C000003689B0720D403689B071DD403689B07D8
:100C10001AD403689B0717D403689B0714D403688E
:100C20009B0711D403689B070ED403689B070BD462
:100C300003689B0708D403689B0705D4193A00D1C1
:100C4000CBE003689B07B1D57F221640066302689C
:100C5000520700D5C9E0026A026852070BD4026A43
:100C60000268520707D4026A0268520703D4026A74
:100C700002685207EFD5026892074DD40A4603680E
:100C80009B0749D403689B0746D403689B0743D45A
:100C900003689B0740D403689B073DD403689B0708
:100CA0003AD403689B0737D403689B0734D403689E
:100CB0009B0731D403689B072ED403689B072BD472
:100CC00003689B0728D403689B0725D403689B0708
:100CD00022D403689B071FD403689B071CD40368B6
:100CE0009B0719D403689B0716D403689B0713D48A
:100CF00003689B0710D403689B070DD403689B0708
:100D00000AD403689B0707D403689B0704D4193AE5
:100D100063D003689B07B2D5009A0263026852074A
:100D20004AD50268520747D50268520744D502687F
:100D3000520741D5026852073ED5026852073BD59B
:100D40000268520738D50268520735D50268520743
:100D500032D5026852072FD5026852072CD5026897
:100D6000520729D50268520726D50268520723D5B3
:100D70000268520720D5026852071DD50268520743
:100D80001AD50268520717D50268520714D50268AF
:100D9000520711D5026852070ED5026852070BD5CB
:100DA0000268520708D50268520705D50268520743
:100DB00002D51939B2D110E0016A0168C90608D517
:100DC0000168C90605D50168C90602D50168C906CA
:100DD000F3D40820FFF715FA2746DB4829462246B8
:100DE000FFF72AFB384601B0F0BD0A4603685B07EF
:100DF00000D430E703685B0700D42CE703685B0787
:100E000000D428E703685B0700D424E703685B0786
:100E100000D420E703685B0700D41CE703685B0786
:100E200000D418E703685B0700D414E703685B0786
:100E300000D410E703685B0700D40CE703685B0786
:100E400000D408E703685B0700D404E703685B0786
:100E500000D400E703685B0700D4FCE603685B0787
:100E600000D4F8E603685B0700D4F4E603685B0788
:100E700000D4F0E603685B0700D4ECE603685B0788
:100E800000D4E8E603685B0700D4E4E603685B0788
:100E900000D4E0E603685B0700D4DCE603685B0788
:100EA00000D4D8E603685B0700D4D4E6193A94D09E
:100EB00003685B079AD4CEE600000A4010B14640B2
:100EC000409C0000FFF7E2F9CC4880210122FFF7A7
:100ED000B3FAFFF7E5FA00F0A3F800F0DBFB00F04F
:100EE0009FF81420FFF796FAF9E7C04670B501267F
:100EF0003102EF4D002428462246FFF79DFAB10645
:100F000028462246FFF798FA310328462246FFF783
:100F100093FA042128462246FFF78EFA00F080F863
:100F20005020FFF777FA70BDF0B585B003910290BD
:100F3000DF4C4021012620463246FFF77DFA710240
:100F4000002720463A46FFF777FA71030191D94D01
:100F500028463246FFF770FA3103284604913A4694
:100F6000FFF76AFAB10228463A46FFF765FAF1023E
:100F700028463246FFF760FA204601993A46FFF7C5
:100F80005BFA082120463246FFF756FA03984000E4
:100F9000039002984000029001970FE0B1062046AE
:100FA0002A46FFF749FA204604992A46FFF744FAF1
:100FB000A020FFF726F97F1CC82F14D00298874283
:100FC000354600D3019D310220462A46FFF734FA08
:100FD000042120462A46FFF72FFA03988742354618
:100FE000DCD3019DDAE705B0F0BDC04670B501263F
:100FF0003102AF4D002428462246FFF71DFAB10604
:1010000028462246FFF718FA310328462246FFF702
:1010100013FA042128462246FFF70EFA70BDC04697
:10102000F0B581B001263102A14D002428462246A8
:10103000FFF702FAB10628462246FFF7FDF9310311
:10104000009128462246FFF7F7F904212846224658
:10105000FFF7F2F9402128462246FFF7EDF9710229
:1010600028462246FFF7E8F97703924D284639468D
:101070002246FFF7E1F9284600992246FFF7DCF9FE
:10108000B10228462246FFF7D7F9F1022846224648
:10109000FFF7D2F9864D284639462246FFF7CCF9AC
:1010A000082128462246FFF7C7F901B0F0BDC04627
:1010B000F0B583B002907E4D40210126284632468D
:1010C000FFF7BAF9710228463246FFF7B5F9740303
:1010D000784F384621463246FFF7AEF93103019189
:1010E00038463246FFF7A8F9B10238463246FFF7D4
:1010F000A3F9F10238463246FFF79EF92846214609
:101100003246FFF799F9082128463246FFF794F94D
:10111000310228463246FFF78FF9B106284632469B
:10112000FFF78AF9284601993246FFF785F904212D
:1011300028463246FFF780F90298FFF76BF9FFF770
:101140006FFF03B0F0BDC04600000A40F0B583B0A9
:101150000190574C4021002720463A46FFF76CF992
:101160000125690220462A46FFF766F96E032046EC
:1011700031462A46FFF760F9082120463A46FFF734
:101180005BF94C4831462A46FFF756F9290349488E
:1011900002913A46FFF750F9A902464806463A46F8
:1011A000FFF74AF9E90230462A46FFF745F9019868
:1011B00040000190009719E0290220463246FFF7CF
:1011C0003BF9042120463246FFF736F9A9062046AE
:1011D0003246FFF731F9204602993246FFF72CF9E3
:1011E000A020FFF70EF87F1CC82F05D0019887427A
:1011F0002E46E1D3009EDFE703B0F0BD00200A4099
:10120000F0B583B001902A4C402101262046324699
:10121000FFF712F97102002720463A46FFF70CF952
:101220007503204629463A46FFF706F9082120466D
:101230003246FFF701F91F4829463A46FFF7FCF806
:1012400031031C4802913246FFF7F6F8B102194803
:1012500005463246FFF7F0F8F10228463A46FFF716
:10126000EBF8019840000190009719E03102204608
:101270002A46FFF7E1F8042120462A46FFF7DCF86A
:10128000B10620462A46FFF7D7F8204602992A469B
:10129000FFF7D2F8A020FEF7B4FF7F1CC82F05D0BF
:1012A000019887423546E1D3009DDFE703B0F0BDEA
:1012B00000200A4000000A4070B500240F4D06E0EF
:1012C00019201521FFF730FE641CAC420FD0E60850
:1012D00000F09EFA7D2EF3D30028F1D07820FFF79E
:1012E000E7FEFFF793F80120FFF7B2F870BDFFF7B4
:1012F000FDFD0320FFF7ACF870BDC046983A000032
:10130000F0B583B0FFF7E8F900281ED000F080FAAE
:101310000025504F2E4604E00025A8B2761C022876
:1013200015D8182414212046FFF7FEFD4A48B04284
:1013300076D000F06DFA002803D10546BE42ECD805
:10134000EAE76D1CBE42E8D8E6E702206BE07820B1
:10135000FFF7AEFEFFF75AF80120FFF779F8962065
:10136000FFF758F8FFF7B2F800285BD0FFF74EF808
:101370000120FFF76DF89620FFF74CF89B2514200D
:10138000FFF73EFF6D1EFAD13C20FFF791FE0026CD
:101390003746019635460CE0201AC1178843C1B282
:1013A0001632D0B2FFF7C0FD701C2B49B142064681
:1013B00036D000F02DFA002801D1054600E06D1C62
:1013C0002448411C002002908E4200D80546A8B255
:1013D00002282CD802A8FFF7E1F9002809D00298CA
:1013E0001021C9430246093A8A4200D23F18002020
:1013F00003E00198622813D8401C01903846174931
:1014000000F072FA0521C943884200DC08461449FD
:101410008F4200DA06204E280246BDDB4E22BBE793
:10142000FFF764FD0320FFF713F803B0F0BD782049
:10143000FFF73EFEFEF7EAFF0120FFF709F89620CE
:10144000FEF7E8FFFFF742F80028EBD0FEF7DEFFDB
:101450000120E8E7E6030000973A00003EFEFFFFA8
:10146000B3F3FFFF80B5FFF737F9002803D08748B3
:1014700000F006F880BD0220FEF7EAFF80BDC046FE
:10148000F0B585B005461920800102900024019432
:10149000274603E0641C6448A04230D01E2C03D3CE
:1014A0001A26600720D102E0202660071CD1002008
:1014B0000390FFF79BFD0298FEF7A3FE03A8FFF73A
:1014C0006DF9002810D00198401C0190282C0BD3F6
:1014D0000398C1174840401A5449884200DB5348DA
:1014E000092801D34001C7193046FFF789FE502C67
:1014F000D0D3AF42CEDB7820FFF7DAFD05E0FFF76F
:10150000F5FC0198000400D182E00120FEF7A0FF65
:101510007820FEF77FFF00260325FFF77BF80028E1
:101520007BD00120FEF794FF7820FEF773FF96240E
:101530001420FFF70BFE641EFAD13C20FFF7B8FD24
:10154000FFF714F8002868D001950120FEF780FF0E
:101550007820FEF75FFF00242746254603E0641C41
:101560003148A0422FD01E2C03D31A2660071ED16B
:1015700002E0202660071AD100200490FFF736FD14
:101580000298FEF73EFE04A8FFF708F900280ED0E7
:101590007F1C282C0BD30498C1174840401A2349BC
:1015A000884200DB2148092801D340014519304613
:1015B000FFF7CCFD502CD2D31D488542CFDB7820DD
:1015C000FFF776FD03E0FFF791FC380420D00120FF
:1015D000FEF73EFF7820FEF71DFFFFF71BF80028FF
:1015E00019D001252846FEF733FF7820FEF712FFB9
:1015F000B9241420FFF704FE641EFAD13C20FFF743
:1016000057FDFEF7B3FF0646002806D1032504E088
:101610000026042501E00026019D2846FEF718FF5C
:10162000304605B0F0BDC046B80B0000E02E00000B
:1016300070EC1B0010B5FFF74FF8002821D01348BD
:10164000FFF71EFF00281BD0B420FEF7E3FE104C6E
:101650002046FFF715FF002812D0B420FEF7DAFE6F
:101660002046FFF70DFF00280AD0B420FEF7D2FE77
:101670002046FFF705FF002802D0B420FEF7CAFE7F
:1016800010BD0220FEF7E4FE10BDC04660721400DB
:10169000903A1C00F0B583B00124A004019000260C
:1016A0000294354601E000294DD0FEF705FF0028E1
:1016B00034D0002402E03C46282C0AD2FEF7FCFE7F
:1016C00007460A20FEF7A6FE002FF4D00A34282C85
:1016D000F4D3E8B203280FD8714E3046019C21465E
:1016E000029AFEF7A9FE5020FEF794FE0022304633
:1016F0002146FEF7A1FE6D1C0026344602E0282894
:10170000044611D2FEF7D8FE07460A20FEF782FEF5
:10171000002F3046F3D10A342046F0E70A20FEF7C6
:1017200079FEE00700D10A36EFB27C427C41B0B2CC
:1017300000094B2801D3002000E00120002F02996E
:10174000B1D00146AFE73846FEF782FEFA20FEF739
:1017500061FE781E032809D8784400794000874448
:10176000010A0E12FFF7A8FD03B0F0BD0420FEF73A
:101770006FFE03B0F0BDFFF7C3FD03B0F0BDFFF790
:1017800071FE03B0F0BDFFF755FF03B0F0BDC046DA
:10179000F0B581B0022202400123034059422224C5
:1017A000A143002A00D0193904240440009400D039
:1017B0000F390825054000D0491F1026064000D0EB
:1017C000491D2027074000D00F314024044000D09D
:1017D000193152089A18009B9B08D218EB08D218AE
:1017E0003309D2187B09D218A309D21840B20028B5
:1017F00004D4100604D1002001B0F0BD2331521CE6
:1018000048B251B200F070F840B201B0F0BD000033
:10181000F0B581B00126B106204D2846FEF705FE41
:101820000446F1062846FEF700FE7440002800D169
:10183000A41C350619482946FEF7F7FD002800D1FB
:10184000241D770615483946FEF7EFFD002800D124
:10185000083413482946FEF7E8FD002801D110207E
:1018600004430F4D28463946FEF7DFFD002801D11D
:1018700020200443B1050948FEF7D7FD002801D117
:101880004020044331052846FEF7CFFD002801D152
:1018900080200443E0B201B0F0BDC04600000A4021
:1018A00000200A4043088B421AD3002203098B42CE
:1018B00079D3030A8B425ED3030B8B4242D3030CD2
:1018C0008B4227D30902FF2212BA030C8B4202D3A8
:1018D0001212090203D0030B8B4233D31AE0D3E078
:1018E000411A8041401C704703460B4371D44308A2
:1018F0008B42F5D3002203098B4254D3030A8B4257
:1019000039D3030B8B421DD3030C8B4202D3944675
:101910006EE0090AC30B8B4201D3CB03C01A5241BC
:10192000830B8B4201D38B03C01A5241430B8B4272
:1019300001D34B03C01A5241030B8B4201D30B035B
:10194000C01A5241C30A8B4201D3CB02C01A524182
:10195000830A8B4201D38B02C01A5241430A8B4245
:1019600001D34B02C01A5241030A8B4201D30B022E
:10197000C01A5241CDD2C3098B4201D3CB01C01A48
:10198000524183098B4201D38B01C01A5241430952
:101990008B4201D34B01C01A524103098B4201D340
:1019A0000B01C01A5241C3088B4201D3CB00C01AAD
:1019B000524183088B4201D38B00C01A5241430825
:1019C0008B4201D34B00C01A5241411A52411000C0
:1019D0007047CA0F00D04942031000D34042534021
:1019E00000229C4603098B422DD3030A8B4212D35B
:1019F0008901FC2212BA030A8B420CD3890192118D
:101A00008B4208D3890192118B4204D3890137D0CC
:101A1000921100E08909C3098B4201D3CB01C01A9E
:101A2000524183098B4201D38B01C01A52414309B1
:101A30008B4201D34B01C01A524103098B4201D39F
:101A40000B01C01A5241C3088B4201D3CB00C01A0C
:101A5000524183088B4201D38B00C01A5241D9D224
:101A600043088B4201D34B00C01A5241411A00D2A5
:101A700001465241104663465B1000D34042704716
:101A800063465B1000D3404201B50021004201D003
:101A9000C9430846C046C04602BD00000000000021
:101AA000B01A00000000202068010000280100009A
:04000005000000C136
:00000001FF
